:020000041000EA
:1000000000B5324B212058609868022188439860DF
:10001000D860186158612E4B002199600221596106
:100020000121F02299502B49196001219960352056
:1000300000F044F80222904214D00621196600F024
:1000400034F8196E01211966002018661A6600F04E
:100050002CF8196E196E196E052000F02FF8012189
:100060000842F9D1002199601B49196000215960AB
:100070001A491B48016001219960EB211966A021F2
:10008000196600F012F800219960164914480160C1
:100090000121996001BC002800D000471248134993
:1000A000086003C880F30888084703B5996A0420EC
:1000B0000142FBD001200142F8D103BD02B5186610
:1000C0001866FFF7F2FF186E186E02BD00000240BE
:1000D000000000180000070000035F00212200005C
:1000E000F4000018222000A00001001008ED00E03C
:1000F00000000000000000000000000074B24E7A12
:1001000000200420F7010010C3010010C5010010F9
:10011000C1010010C1010010C1010010C101001097
:10012000C1010010C1010010C1010010C701001081
:10013000C1010010C1010010C9010010CB01001065
:10014000CD010010CD010010CD010010CD01001037
:10015000CD010010CD010010CD010010CD01001027
:10016000CD010010CD010010CD010010CD01001017
:10017000CD010010CD010010CD010010CD01001007
:10018000CD010010CD010010CD010010CD010010F7
:10019000CD010010CD010010CD010010CD010010E7
:1001A000CD010010CD010010CD010010CD010010D7
:1001B000CD010010CD010010CD010010CD010010C7
:1001C00000BE00BE00BE00BE00BE00BEEFF3058054
:1001D000103800BEF2EB8871D08B0510F08B051043
:1001E0003802001090A31AE71E481F49086006C88D
:1001F00081F3088810471D480068002801D019487D
:10020000F3E70DA40ECC002902D000F012F8F9E7B4
:100210001749184A002000E001C19142FCD116495B
:100220008847164988471649884700BEFDE701C937
:1002300001C29A42FBD37047F08B0510E00000200A
:100240002018002030A30510000004200000042026
:1002500030A305100010042000100420000000004E
:10026000704700000000000008ED00E0000000D032
:1002700020180020C0ED0220115B01109D07001026
:10028000095B0110F8B5C0460448054B10B5834220
:1002900003D0044B002B00D0984710BD201800203D
:1002A000201800200000000006480749091A8B109A
:1002B000C90FC91810B5491003D0044B002B00D04A
:1002C000984710BD201800202018002000000000D2
:1002D00010B5074C2378002B09D1FFF7D5FF054B4C
:1002E000002B02D0044800E000BF0123237010BDA2
:1002F000401B00200000000044B50110054B10B564
:10030000002B03D00449054800E000BFFFF7CCFFF5
:1003100010BDC04600000000441B002044B5011081
:1003200070B5114D114C124E2B78002B18D00021B6
:10033000200000F0D5FAFA20400019F0A7FC3C217B
:10034000200000F0CDFAFA20400019F09FFC0021B7
:10035000200000F0C5FA19F0D5FC002330602B70A6
:10036000642019F093FCDFE7B3ED022038EB0020A6
:10037000083F002070B50C00150082B0052800D998
:1003800096E04C4B80001B589F461A2000F062FA02
:10039000002800D177E029002000474A15F05CFBD7
:1003A00080B202B070BD19F0ADFC444B1B68C01A9E
:1003B000434B98426ED929002000424A15F04CFB6D
:1003C00080B2EEE7042280213F4B49001A603F4A89
:1003D00013680B42FCD050683D4E0004000C13F033
:1003E000EBFE3C4913F0ABFEE621890513F0A7FEB6
:1003F00013F00AFF3200009001912900200015F04F
:100400002BFB80B2CDE700200CF0B8FE002848D0CE
:1004100029002000304A15F01FFB80B2C1E70422FA
:100420008021294B49001A60284A13680B42FCD0EE
:100430005068274E0004000C13F0BEFE254913F04F
:100440007EFEE621890513F07AFE244913F05DFE55
:10045000234913F060FE011C224813F056FEC7E743
:100460001A2000F0F7F9002806D0290020001E4AC3
:1004700015F0F2FA80B294E7290020001B4A15F02B
:10048000EBFA80B28DE729002000194A15F0E4FA52
:1004900080B286E729002000164A15F0DDFA80B206
:1004A0007FE729002000144A15F0D6FA80B278E7D9
:1004B000002076E7D4D701105CB50110083F00207A
:1004C0000F27000078B5011000E0044000C0044090
:1004D00048B50110333353404CB501106ABC343F6A
:1004E0002D93E13A0000D84154B5011058B50110E0
:1004F0006CB5011080B5011050B5011010B511494F
:1005000010681C001AF016F900280FD123681A7819
:10051000302A0DD0312A09D15B78002B06D100207A
:1005200001210CF021FE032000F0CEF9064810BD99
:1005300059780029EED10CF017FE032000F0CAF91B
:10054000F4E7C046E4D101108CB5011010B519F0E4
:10055000D9FB084B1B68C01A074B984201D80748C3
:1005600010BD1A2000F076F90028F8D00122044BC3
:100570001A70F4E7083F00200F2700008CB5011027
:10058000B3ED0220F0B557464E46DE464546314BA8
:10059000E0B59946304B85B09B46304B304F98467E
:1005A000304B314E0393314B0293314B9A4625E049
:1005B00019F0A8FB4B461B68C01A504545D9584650
:1005C00015F028FC0021404600F08AF9FA2040008E
:1005D00019F05CFB3C21404600F082F9FA20400013
:1005E00019F054FB0021404600F07AF919F08AFB1B
:1005F0004B461860FA20400019F048FB380000F024
:1006000045FA041C1A2000F025F90500201C13F0FF
:10061000FBFD009502000B00300015F083FC15492E
:10062000201C13F0BBFD0028E4D0002DC0D102989F
:1006300015F0F0FB032000F047F9FA20400019F014
:1006400025FB032000F046F9D4E7039815F0E2FB00
:10065000D0E7C046083F0020B8B5011038EB0020B5
:100660008CEC0220ECB501109CB5011008B601100D
:100670000F2700000000F04110B51A2000F0C8F864
:100680000F220E21054800F0EBF90221044800F08A
:1006900069F9032000F00EF910BDC0468CEC022071
:1006A00038EB002070B50CF001FD2A4D2A4C2B4E82
:1006B00006E0300015F0AEFBFA20C00001F088FC27
:1006C00029002000264B274A0CF0FEFC0028F0D120
:1006D000254815F09FFB13F011F8244815F09AFBFC
:1006E000234B1868002803D03923C35CDB0724D4CC
:1006F000204815F08FFB17F0F3FE02221E4B1F4916
:100700001A601F4B1F481A688023DB015340E02208
:10071000D20113401C4A1360062213F01DF81B4837
:1007200015F078FB02211A4813F03AF8032000F084
:10073000C1F8184815F06EFB70BD4368002BD7D088
:1007400004300CF0F1FA144B0100180015F0EAFB2C
:10075000D1E7C046ECD70110F8D7011038B6011028
:10076000307500000400400054B6011060B601105E
:1007700098D8002088B6011000E00440A0110020A5
:1007800000C004407503001000D00440A4B601105E
:1007900004D80110BCB6011078B6011000B583B0C2
:1007A00015F0E8FAFFF768FF0CF000FD00281AD1F9
:1007B000FFF778FF0F4B8022019302230E4900932D
:1007C000920000230D4818F08BFF0D4B80220193FF
:1007D00001230C490093920000230B4818F080FF7E
:1007E00019F0A0F8FEE7094815F014FB012040427B
:1007F00003B000BDDC270020F0B601108505001015
:10080000F031002000B7011021030010D4B6011010
:1008100010B5040017F064FE02220C4B1A6023008E
:100820001A3B032B0DD81F21200002F0FDF80021F8
:100830002000002202F012F90021200002F094F9B9
:1008400010BD034815F0E6FAFAE7C04600F0044090
:1008500054B701101A38C0B210B503281CD8114C77
:100860000003236800215840E023DB0118400E4BB1
:1008700018600A2001F098FB04220C4B1A60FC322D
:1008800023681342FCD09620636800011B041B0CF4
:1008900098428041404210BD054815F0BBFA002047
:1008A000F9E7C04600C0044000D0044000E0044026
:1008B00084B7011010B5040002F06AF90123D022B8
:1008C000A3401206536210BD0123D02283401206BA
:1008D000536170470123D022834012069361704711
:1008E00070B505006B7808009C00E418164BA40056
:1008F0009C46644413F060FC144913F020FC144936
:1009000013F009FC134913F003FC061C686813F08C
:100910004DFC011C301C13F012FC0F4913F0FBFBC3
:1009200013F06CFCAB7880B2002B0AD00B4B0004A8
:10093000226842401340802252019446644423605E
:1009400070BD074BF4E7C0460C0005400000204195
:1009500000003443000020400000C8420000FFFFB8
:10096000FFFF0000F8B500230D0083704370436063
:10097000017004000421280002F056F8052002F05E
:100980004DF8C8218902060013F030F84B1E99413A
:100990000F00C8213000890213F028F83F18102FEB
:1009A00000D210273900300113F020F8322113F063
:1009B0001DF8013860606B081F2D3AD807221A40D5
:1009C000012193000D406270A5709B181C4D1D4ABB
:1009D0009B0000049A183D40000C5560106112689D
:1009E00064209143184A94466344196001F0F0FA78
:1009F000637860689D00ED18144BAD009C4665441B
:100A000013F0D4FB124913F09AFB124913F083FB45
:100A100013F0F4FBA37880B2002B0ED00E4B000431
:100A20002A685040802252019446034065442B605E
:100A3000F8BD03221A400832C2E7084BF0E7C0466F
:100A4000FF0F000000000540001005400C000540AD
:100A5000000020400000C8420000FFFFFFFF000030
:100A600070B501264170027008000D00140002F0FC
:100A70008FF83300AB40D025A6402D066B622000D6
:100A8000AB6102F085F8AE6270BDC04670B501245E
:100A900022004378D0259A4006002D06022000212E
:100AA000AA6101F081FA2200737805209A400021A2
:100AB0006A6101F079FA220073789A400E4BAA61BC
:100AC0009B6A33789C4023006A681342FCD0D02193
:100AD000094A0906946A4A681A42FCD1064B986A88
:100AE000001B13F063FBFC21890513F028FB03496D
:100AF00013F025FB70BDC04600400540287E0C3D2C
:100B000010B508F0E3F910BDF8B501230B7204002D
:100B100008F010FA0500431C0BD1104B18685968F7
:100B20000F4B22689860D9601900200052699047E5
:100B3000F8BD01F009FBFA2206000F00002328008F
:100B40000021920013F0C4FA8023801979411B061A
:100B50009942E5D3012003494042E1E718D801104A
:100B6000B8110020FFFFFF7F70B5094D04002B78FE
:100B7000002B08D00123074920000B722368DB6992
:100B80009847012070BD02F0DFF801232B70F1E7D8
:100B9000ADED0220D011002010B504000368044917
:100BA0009B6998472368200002491B6A984710BD3B
:100BB000B8110020D0110020002070477047C046B7
:100BC00010B501F0C1FA002905D0FA2200239200E5
:100BD00012F04AFF10BDFA21890012F007FFF9E771
:100BE00083680830002B04D107E018001B68002B35
:100BF00003D09942F9D1002003E0002301600120D5
:100C00000B6070478368002B08D08B4202D107E04D
:100C1000994206D018001B68002BF9D100207047BC
:100C200008300B6803600120F9E7C04643680430D0
:100C3000002B04D107E018001B68002B03D0994259
:100C4000F9D1002003E00023016001200B60704710
:100C50004368002B08D08B4202D107E0994206D0AE
:100C600018001B68002BF9D10020704704300B6876
:100C700003600120F9E7C046F0B55746DE46464618
:100C8000C0B53E4B82B05C681B68009301948368DA
:100C90008246002B2CD0082353449B4601F054FA83
:100CA00053469B6804000D005F46002B20D00022B5
:100CB0001E0094469846B268F36820002900801A06
:100CC0009941002902DB14001D00BC46370036683C
:100CD000002EF0D162464346002A48D011685046A3
:100CE0000B6813604B68984753469B68002BD5D11F
:100CF00053465C68002C29D000255646237A002BE9
:100D000031D0210063682572300098472468002C98
:100D1000F4D1B168B246002918D0009C019D0E00A4
:100D200003E004000D00002E0ED03300220098686E
:100D3000D9682B00121A8B413668002BF1DCF2D1F6
:100D4000002AEED1002EF0D100940195009B019C69
:100D50005246180021001361546102B0E0BCBB464A
:100D6000B246A846F0BD2468002CC7D1D1E71900CF
:100D700053465C68002CBFD1CFE7C04618D801109D
:100D8000F0B5C646804600B501F0DEF943469B68E3
:100D900006000F00002B03D10EE01B68002B0BD0C8
:100DA0009C68DD6831003A00091BAA41002AF4DB87
:100DB000012080BCB846F0BD43465B68002B03D1E0
:100DC00006E01B68002BF4D0187A0028F9D0F0E771
:100DD0000020EEE78023DB051868000F7047C0464F
:100DE0000FB400B5084883B015F014F8049B002B2D
:100DF00007D005A91800019114F052FE034815F020
:100E000009F8012014F064FE9CB70110FCD2011017
:100E100010B50148FFF7E4FFACB7011070B50F4CF7
:100E20000F4D104A24184D41A900A00F0843A90FE7
:100E300069400D4B604013F04BF94A01C30E134358
:100E4000CA0E58405140094B094A13F041F94A0073
:100E5000C30F1343CA0F5840514070BD157C4A7FE1
:100E6000B979379EB9E5E41C6D4758BFBB49D094AA
:100E7000EB113113F0B504684568060023002A0021
:100E8000C6468068F16803430A4300B5134304D1A2
:100E900001F05AF903000B43FAD02A06230A6040F6
:100EA000270613432A0A3A43070CBC4669404B40C5
:100EB000984663460F041F43424003045A4043468A
:100EC0007B4032607360C20E4B011343C90E400178
:100ED0000843B360A10FAB000B43A20012196B4192
:100EE000F060D901500E0843D201590E11430C0095
:100EF00005004B0FC1001943E0000019694180BC97
:100F0000B846F0BDF0B5DE4657464E464546E0B51C
:100F1000BC4991B008910978002900D1E5E00CABFB
:100F20009846B94BB94C0293B94BBA4E059310226F
:100F30000599404613F000FAB74B06931B78DBB2D5
:100F4000079301F001F9FFF769FF0C9B43400893F9
:100F500043465B684B400993B04B9B69DB0433D538
:100F6000AF4BDA6BE0231340402B2DD0EFF305831A
:100F70009A46AC4B2768994600239B463300564659
:100F800065689A4638002900002E1AD001F0E6F86C
:100F9000EFF3108272B64B461B68002BFBD0BFF3F9
:100FA0005F8F2368BB4212D0BFF35F8F4B46594619
:100FB000196082F310882768656838002900002EC0
:100FC000E4D100F08BFFE3E712F004FCCEE76368A6
:100FD000AB42E9D1914B1500DF6901F0B5F80A2267
:100FE0000023801859410B00802156460200090653
:100FF0008B4202D301228C4B524201200CC4326836
:10100000736892185B4138401043002400920193AA
:1010100030607360BFF35F8F824A146085F310887D
:101020000199FFF7FBFE43469B6842465840434602
:10103000DB6890604B40D3607C4A029B94461B78EF
:101040007B4ADB006344986890424CD00021FFF754
:10105000E5FE089B43400C93099B4B401900434617
:101060005960EFF3108572B66E4A1368002BFCD0FE
:10107000BFF35F8F069B079A1B78934214D00598A5
:101080000C9A036841685A4043465B680C9242469A
:101090004B40536092688368C1685A404346DB689E
:1010A0004B4041468A60CB604046FFF7E3FE10228A
:1010B00006000C000598414613F03EF9069A137895
:1010C0000133DBB21370BFF35F8F0022554B1A6000
:1010D00085F310883000210011B0F0BCBB46B24649
:1010E000A946A046F0BD9C60B0E7524D524CAC46BC
:1010F00020686168514DA246A84600920193850D73
:101100008F0286022F4334003D0024184D41A30E68
:101110009946AB0101934B46019A1A43A3010093F0
:101120000192009C019D241A8D412000644608CC48
:10113000290002930023A4460393029C039D0019F7
:101140006941C445DBD1544620606160FFF766FE0B
:101150000CAB98460C9B4340029343465B680AA83D
:101160004B40059300F02CF90A980B99FFF756FEB7
:1011700043469B68434006934346DB684B400793D6
:10118000264B9B69DB0400D4F4E0254BDA6BE023AB
:101190001340402B00D1EDE0EFF3058300249A4685
:1011A00000234025009301941E4B2E00994655467E
:1011B000C346164C0023B04627682E0065689A4641
:1011C00038002900002E1AD000F0C8FFEFF310827B
:1011D00072B64B461B68002BFBD0BFF35F8F2368B2
:1011E000BB422DD0BFF35F8F4B465146196082F34F
:1011F00010882768656838002900002EE4D100F0C7
:101200006DFEE3E7B8ED0220AAED0220F8190020F8
:10121000D0000020C0000020ABED022000000640FE
:1012200000800040300100D0FFFFFF7F000003403E
:10123000FFFFFF00001C0420C80000200020042045
:101240006368AB42CED1350046469046009A019B7A
:1012500010001900801859414B4BDA6901231340E3
:1012600003430093019100F06FFF0A2200238018CE
:1012700059410B008021020009068B4202D3012252
:10128000424B524222606360012E5ED10098019968
:1012900035003F4E474630607160D846BFF35F8FE0
:1012A0003C4B994600234A46136087F31088FFF7AA
:1012B000B5FD029B43400C93059B4B4019005B46D8
:1012C000596000F041FFFFF7A9FD069B434018005D
:1012D0005B469860079B4B4019005B46D960EFF373
:1012E000108772B64B461B68002BFBD0BFF35F8F95
:1012F000089B1B78002B31D1274BDA681F2A3CD082
:101300005A691F2A3AD0DA691F2A39D05B6A032545
:101310001F2B33D012F05EFAFF25FF231F4AED008A
:1013200013701F4B02929C46052365446B60404638
:10133000FFF7A0FD1B4B102218004146059312F049
:10134000FBFF0123089A13700CE0BFF35F8F0023AB
:101350004A46136088F31088013E2BE70F4B029337
:10136000104B0593BFF35F8F00220A4B1A6087F37F
:101370001088DCE512F02EFA0EE70025EBB2CDE77F
:101380000225EBB2CAE7C04600000640FFFFFF7F20
:10139000C0000020300100D000000340AAED022070
:1013A00008000340D000002010B5FFF7ABFD10BDD2
:1013B00010B5024800F0E0F810BDC0462CEB00204C
:1013C00010B50822014912F0B7FF10BD2CEB002028
:1013D00030B54B1E012900D1A7E0664A11780D09EE
:1013E0002C0030349F2900D9A2E00470012B00D1D9
:1013F000BEE00F21147821400C003034092900D9B7
:1014000098E04470022B00D1B2E0547825092900FD
:1014100030319F2C00D990E08170032B00D1A7E0E0
:101420000F2121400C003034092900D987E0C47015
:10143000042B00D19CE094782509290030319F2CA1
:1014400000D97FE00171052B00D191E00F212140EF
:101450000C003034092900D976E04471062B00D104
:1014600086E0D4782509290030319F2C00D96EE020
:101470008171072B00D17BE00F2121400C0030341B
:10148000092966D8C471082B00D171E014792509A7
:10149000290030319F2C5FD80172092B68D00F21B1
:1014A00021400C003034092958D844720A2B5FD0EF
:1014B00054792509290030319F2C52D881720B2B89
:1014C00056D00F2121400C00303409294BD8C4726A
:1014D0000C2B4DD094792509290030319F2C00D94F
:1014E000073101730D2B43D00F2121400C00303404
:1014F000092901D937310C0044730E2B38D0D1792A
:101500000C09220030329F2900D9073282730F2B39
:101510002ED00F220A4011003731092A01D830326B
:101520001100C173102B23D010300023037030BD85
:1015300007345AE737310C0063E707316CE737317E
:101540000C0074E707317DE737310C0085E7073180
:101550008EE737310C0095E707319DE737310C00F6
:10156000A3E70731AAE737310C00C4720C2BB1D1C5
:10157000C018DAE72CEB002010B588B004000D226B
:101580000021684612F0D2FE0D22002104A812F0BC
:10159000CDFE4B236A466846137004A90D2219F04C
:1015A00023FF152108222000694412F0C5FE08B06F
:1015B00010BDC046EFF3108072B6034A1368002BCB
:1015C000FCD0BFF35F8F70472C0100D0BFF35F8F5B
:1015D0000022024B1A6080F3108870472C0100D063
:1015E00070B5EFF3108C72B60D4D2B68002BFCD04C
:1015F000BFF35F8F0724CB08C618C05C01230C40E3
:10160000A3401C000440034207D118433070BFF3CD
:101610005F8F2C608CF3108870BD1000FFF7E0FB2B
:101620002C0100D0F8B54746CE46884680B5EFF38A
:10163000108C72B6214D2C68002CFCD0BFF35F8F4C
:101640009A422CD8D4080727055D061901241740B3
:10165000BC402C421FD007210127894609E0D4084D
:10166000055D06194C4639001440A1400C00294282
:1016700011D001329342F2D201204042BFF35F8F7A
:1016800000220E4B1A608CF3108800280FDBC0BCC0
:10169000B946B046F8BD254310003570EEE7BFF3FC
:1016A0005F8F00232B608CF310880120404243465B
:1016B000002BECD00898FFF793FBC0462C0100D01C
:1016C00030B5EFF3108C72B60A4C2368002BFCD0B7
:1016D000BFF35F8F072301220B409A40CD08435D83
:1016E00093434355BFF35F8F002323608CF310882F
:1016F00030BDC0462C0100D0044A1078431CDBB238
:10170000172B00D9102313707047C046E01100203A
:1017100010B5064B064C82B00100009318221F231F
:101720002000FFF77FFF02B010BDC046BCB701101C
:10173000A82700200021044B044ABFF35F8F02C397
:101740009342FAD17047C046000100D0800100D01A
:10175000142310B50100188804331B88984710BD66
:10176000162310B50100188802331B88984710BD56
:10177000F8B54746CE4680B50F1E19D014239946BA
:10178000043304000025012698464B46188843463A
:1017900021681B88984701C4431E98410135404287
:1017A0000640AF42F1D13000C0BCB946B046F8BDEA
:1017B0000126F8E7142370B50400188804331B8849
:1017C0000D000549984703000020002C01DB013083
:1017D000A04029009847C04655420000F0B5DE46BB
:1017E00057464E464546E0B583B0EFF305820323E6
:1017F0001340B54A990052580091904601229A40F0
:10180000B24B93461A60B24B01932EE043469B883D
:101810001BB2002B00DB99E043469B79002B00D0E4
:10182000DDE0434608241C5F002C00DA06E1434655
:101830005A6963001B19DB00D3189D68DC686B1CB8
:1018400000D107E1A34B00999C4661449A6A0B6959
:10185000A81A9B1A984200D20D619E4800F06CFCB9
:101860008C4200DDEAE000D126E15B469948436303
:10187000434608229B5E9946002BC7DB42465269CD
:101880005B0092464B44DB009A4453469E68DF68F7
:1018900000F052FC8F42B9DC00D100E1002F00DAE9
:1018A000E1E05246534654691B69019A934200D1C4
:1018B000D4E0414652460820085E528800042100C8
:1018C0001043984704000D0023002B4300D1CAE0C9
:1018D000002D00DBE7E030003900001BA941534632
:1018E0009860D96000229A5E002A8FDB43465D69CA
:1018F00053009C18E4002C19A768E4688C4200DDB2
:1019000084E702D1874200D980E746463281083613
:101910000DE08C4200D1D3E01E000023F25E002ACD
:101920000ADB53009C18E4002C19A768E4689B1894
:10193000DB00EB188C42ECDD53461A804B463380BB
:1019400043469B881BB2002B00DA65E743461A69C1
:10195000EFF3108172B61368002BFCD0BFF35F8FDA
:1019600043469E88012342465B42938036B2136908
:10197000BFF35F8F00221A6081F31088002E00DA17
:101980004AE743465D69083342469C467700BF19E3
:10199000FF00EF19BB68604698460823D15E924667
:1019A000FC68002907DA0EE0A2424FD0180000239D
:1019B000C15E002906DB4B005B18DB00EB18DA6820
:1019C000A242F1DD524606800023FE5E3980002EE1
:1019D000DCDA904643469B79002B00D121E70023B7
:1019E00042469371434646460821595E08364B1CD1
:1019F00024D047468946556902E006004B1C18D0A2
:101A00004B005B18DB00E8180A008C46E95E43884F
:101A10001BB2002BF1DA01235B42DC178360C46048
:101A20004A4503D031803B8903803A81E1464B1C13
:101A3000E6D14C46B846002C00DBF8E640BF03B0C8
:101A4000F0BCBB46B246A946A046F0BD9A684245E6
:101A5000ACD9B7E7631C00D0F4E6FEE620002369AA
:101A60009847002825D1534642461B8813811269A6
:101A7000EFF3108372B611680029FCD0BFF35F8FBB
:101A80004246514652880A80424649465180126970
:101A9000BFF35F8F0021116083F31088B6E68642A2
:101AA00000D8FBE6B2E60B4800F046FB001969419E
:101AB00015E76568246807E7854200D8D5E6BDE7E5
:101AC000874200D828E737E7ACD800203C700540B3
:101AD000DD17001000400540074810B50268EFF31D
:101AE000108172B61368002BFCD0BFF35F8F16F025
:101AF00097FF0020002110BD44EC002070B52E4C53
:101B00002569002D04D00A212C4800F031FE70BD5B
:101B10002B4E0321300000F0EBFAE660FFF7ECFDFE
:101B2000284B03229C46D02322701B061B680121F0
:101B30006370254B6044A3600F2380002061022066
:101B4000638063694942A180198002311986473157
:101B50001D83585218315A5275325C3999521832D5
:101B6000013199521832013199521832013199528A
:101B7000083518329D52023118329952183201310B
:101B80009952183201319952183201319952183252
:101B9000013199521832013199520C4B0C49DC60D9
:101BA0000130356200F038FB0121032000F0F8FA23
:101BB000084B1D60A7E7C046E411002044EC00205C
:101BC0000040054040000034FFFF1000ACD800206A
:101BD000DD1700103860054000487047E411002010
:101BE000F8B5050018200F0012F048FB041E3ED087
:101BF0001821380012F060FB01216061280000F01C
:101C00008BFAE5600600FFF777FDD02226701206FA
:101C10001268184B62709C460122BBB2524260446B
:101C2000800063819B1820612281A2806380002F45
:101C30000BD079006269C919C9000F4B891813804C
:101C4000013318329BB28A42F9D10127B7400B4BBE
:101C5000B20030000A492F62D45000F0DDFA0121B1
:101C6000300000F09DFA074B9C4665442F60200031
:101C7000F8BDC04640000034FFFF0000ACD8002093
:101C8000DD17001038200000114B70B50400984299
:101C90001DD001220F4905788C46AA40C368012156
:101CA00063441A60280000F07BFA0B49280000F01A
:101CB000D7FB280000F026FA00212278074B606944
:101CC0009200D15012F01AFB200012F017FB70BDE9
:101CD000E411002038300000DD170010ACD80020DF
:101CE000F8B51F0008AB1B7804001600002B08D1C4
:101CF00000F02AFA32003B00121A8B41002B00DA66
:101D000053E02269EFF3108072B61368002BFCD009
:101D1000BFF35F8F0223E15E63694A005218D2006D
:101D20009B18002937DB1A8862802269BFF35F8F16
:101D30000025156080F31088069A9E60DF601A61A6
:101D4000079A5A615A8801325204520C101C002A18
:101D50001FD082B25880080410432669EFF3108721
:101D600072B63268002AFCD0BFF35F8FA2881A8057
:101D7000A1802369BFF35F8F00221A6087F3108868
:101D80000B4923788C4601329A40E36863441A6019
:101D9000F8BD0120DDE72369BFF35F8F00221A60E1
:101DA00080F3108801204042F2E70020F0E7C046AF
:101DB0003C20000070B501000469EFF3108C72B68E
:101DC00020680028FCD0BFF35F8F02200D5E4C69B5
:101DD00068004019C0002418002D37DB2088488097
:101DE0000869BFF35F8F002606608CF31088E360FC
:101DF00063880498013320615B0405985B0CA26042
:101E000060611A1C002B1FD093B228046280184313
:101E10000A69EFF3108C72B61368002BFCD0BFF385
:101E20005F8F8B8823808D800B69BFF35F8F0022CB
:101E30001A608CF310880B7801329A40CB680849FD
:101E40008C4663441A6070BD0122DDE70B69BFF365
:101E50005F8F00221A608CF3108801204042F2E765
:101E60003C20000010B543890A1493421ADD530048
:101E70009B184269DB00D3180469EFF3108C72B62B
:101E80002268002AFCD0BFF35F8F5A88090494B2FD
:101E9000090C8A4208D00369BFF35F8F00221A60E1
:101EA0008CF31088002010BD8022120214435C8045
:101EB000012302698371BFF35F8F002111608CF3EE
:101EC0001088044902788C469340C268012062441D
:101ED0001360E8E73C20000040787047F0B54746C3
:101EE000CE46040080B50D0096267642F7173619C7
:101EF0006F4183B08F4215D812D000F025F932001F
:101F00003B00121A8B41002B16DC002B40D0200026
:101F1000290000F023F903B0C0BCB946B046F0BDBB
:101F20008642EAD90026002700F00EF932003B0075
:101F3000121A8B41002BE8DD00F006F932003B005D
:101F4000121A8B41002B0ADB00230193124B320043
:101F5000009312483B00FFF72DFF0028D7DBB8465F
:101F6000B1460F4F0F4E7B6A984504D8BA6A914527
:101F7000CDD99845CBD13268EFF3108172B6136892
:101F8000002BFCD0BFF35F8F300016F015FDEAE7A1
:101F9000002ABCD0D0E7C046D91A0010E4110020B6
:101FA0000040054044EC002070B504000D0000F036
:101FB000CBF88023001969411B06994202D3012006
:101FC00002494042FFF78AFF70BDC046FFFFFF7F16
:101FD00070B5060000F0B8F8FA2204000D000023E6
:101FE00030000021920012F073F88023001969413B
:101FF0001B06994202D3012002494042FFF76EFFBF
:1020000070BDC046FFFFFF7FF0B5CE46474680B5A6
:1020100004000D0083B0EFF305878846002F3ED102
:102020002E4EA1463378F06804339B00816A1B581A
:10203000601A5B1A98420ED320BF294900204B6AD0
:10204000AB4203D38A6A0130944231D803B0C0BC9A
:10205000B946B046F0BD00F077F822002B00121A06
:102060008B41002B2FDB1F4B2200009330002B00F5
:102070000197FFF79FFE011E25DD194B5A6AAA4200
:102080001BD220BF3000FFF7EDFE154A0020536A37
:102090004345DBD3926A01309145D7D908E0104916
:1020A00000204B6AAB42D1D38A6A0130A242CDD222
:1020B0005B1B5A1E9341D8B2C8E79B6A9C42E1D988
:1020C000AA42DFD1DDE7064A0020536A4345BDD36B
:1020D000926A01209145B9D9EAE7C046E41100208F
:1020E00000400540D91A00100048704700400540E4
:1020F00010B5024A0248FFF773FA10BDD8B70110B5
:10210000AC27002010B5034B01001800FFF7D8FAE8
:1021100010BDC046AC27002000B5054B83B000932E
:10212000002203230348FFF77DFA03B000BDC04639
:10213000FCB70110AC2700200300416A0A00986A2E
:10214000596A8A42FAD17047034B596A0A00986A61
:10215000596A9142FAD1704700400540064A536AD5
:102160009942FCD807D1044B02E05A6A914202D14D
:102170009A6A8242F9D3704700400540054B064AEF
:102180001360064A136053609360D3601361536118
:10219000936170478080808000E400E004E400E008
:1021A0001F2318401E3B8340002905D0C021044A4C
:1021B0004900535013607047802201498B50FAE761
:1021C00000E100E001228240034B1B6813405A1ECD
:1021D0009341D8B27047C04600E100E0012383403C
:1021E000014A13607047C04600E200E0084B10301F
:1021F0009B688000C358002B07D0064A00209B1A1A
:102200002F229A424041C0B270470020FCE7C046EE
:1022100000ED00E0FC11002070B50D00EFF310861A
:1022200072B60F4A1368002BFCD0BFF35F8F0D4BC3
:1022300010309B6884001B590B4A934203D09D4287
:1022400001D011F0C7FA074B9B681D51BFF35F8F98
:10225000BFF35F8F0022024B1A6086F3108870BDB7
:10226000240100D000ED00E0CD010010F0B557468C
:102270004E46DE464546E0B585B0060000911700A3
:10228000EFF3108B72B66A4A1368002BFCD0BFF3D1
:102290005F8F0025674B5D579A46002D00DAA9E055
:1022A0006B00654C01935B199B009846A146C144A5
:1022B0004B4652469B7910361370604BB6009B68B4
:1022C00099590B1B2F2B33D95D4B994200D0ACE0B1
:1022D000019B42469C465B4B6544AD0063535A4BA1
:1022E0000232A218043B9B1A1B05584A5B0D651964
:1022F00013436B80564B0121AB80FF23AB71009BD6
:10230000EF71AB604B460B4319004C4B9B689951E6
:10231000BFF35F8FBFF35F8F0022454B1A608BF3D3
:10232000108805B0F0BCBB46B246A946A046F0BD39
:1023300001200A008243D3798C46BB4231D84546FE
:10234000130044491B1B5B415943090D3D4B63532B
:102350003D4B02356519043B5B1B1B053B4D5B0D7B
:102360002B43AA464D466B800425AC465546E044B7
:10237000131F44441B1B1B055B0D1D434B469971EA
:1023800000999D8099604946DF71334B014313608A
:10239000BBE75800C01880002018C179B9422FD976
:1023A00002000623D356002BF3DA02932B4B61462F
:1023B0000393131D9A4604235B429C46E144504616
:1023C0004B461B1A1B055B0D9C46204B957198468E
:1023D0006346404603439380019B5A199200039B36
:1023E000A418A380029B1C4AA371009B2260E77182
:1023F000A3608AE711F0EEF9002553465D574FE7D9
:10240000908802934005131D9A46031561469C4629
:102410004046D444634604302018181AE0230005CF
:10242000400D1B0218430390C5E711F0D3F94FE7A5
:10243000240100D0B0ED0220FC11002000ED00E0EE
:10244000CD01001000A1FFFF2C12002000E0FFFFD3
:1024500001BDFFFFAAAA00000148804701BD00009E
:10246000F0B5DE4657464E464546E0B50C0083B013
:10247000EFF3108872B6634A1368002BFCD0BFF3E9
:102480005F8F614B61499A68030010339F00D559F3
:1024900000938D4243D0A54254D05D4EAA1B2F2AF3
:1024A0003DD85C4B9C461B689A4601231A0099460E
:1024B0008240534613401F2201934B4602409340F3
:1024C0009A468022634650469850BFF35F8FEFF3E1
:1024D00005839B46002B37D0009B5B4501D011F054
:1024E00079F92A004B469A439068844208D177E0F4
:1024F0004B005B189B00F3189868844236D01A0092
:10250000062151560029F3DA844255D0019B002B55
:1025100027D0C02251463F4B5200995019603A4B88
:102520009B68DD51BFF35F8FBFF35F8F0022354B98
:102530001A6088F3108803B0F0BCBB46B246A946C7
:10254000A046F0BD0D00EAE72A004B469A4390688A
:102550008442D5D106201056130000280ADA0D0057
:1025600032E0802351462B4AD150D8E70620185636
:10257000002822DB42001118890074188946A168DE
:102580009960E179D971062161569971002925DB9D
:10259000A488F11A640524154C440919E02409059E
:1025A000490D24022143998013181B4A9B0011787E
:1025B000F31899711070A9E713005946002914D136
:1025C000FF3191711549918013490A789A71144A23
:1025D0009B1B5B415A43120D0A7097E71149E2E7D2
:1025E0000620105613000028C4DA0F4A0F49D21AE9
:1025F000083A5002400D014399800D4952080A43A0
:10260000DA8083E7240100D000ED00E0CD01001066
:10261000FC11002000E100E0B0ED022001BDFFFF51
:10262000AAAA000001BD00003612002000F0FFFF42
:1026300000F8FFFF10B58308040003202040FF24AA
:10264000054AC0009446844081409B0063441A6858
:10265000A2430A431A6010BD00E400E070B50124F3
:102660000443EFF30581EFF3108C72B6214A13682F
:10267000002BFCD0BFF35F8F1F4B05001F4AED1AE4
:102680006D416A43120D1E4D8900AE6852B27658F4
:10269000A6421CD00621595691421CD012215956EF
:1026A000914222D01E215956914220D02A215956BA
:1026B0000324914210D0134B19781A708171BFF323
:1026C0005F8F00220B4B1A608CF3108870BDAB68D3
:1026D0000D4C5C50EFE700246100091989005B187C
:1026E000FF21997109499980E5E70124F4E7022463
:1026F000F2E7C046240100D0FC110020AAAA000085
:1027000000ED00E0B0ED0220CD01001001BDFFFFA3
:102710001F2110B5091A0248FEF7D2FF10BDC046AE
:10272000BCED022010B5084B084C82B001000093AC
:10273000002205232000FEF775FF002801DB1F2380
:10274000181A02B010BDC04610B80110BCED02202E
:1027500070B504000E001500FEF7CEFF010020004A
:1027600000F006F8A680E580BFF35F8F70BDC0461D
:10277000024B9C4661448900016070474000003470
:10278000F8B5124C124DAC4212D201260027764207
:102790002368002B0DD0FEF7AFFF01002000FFF7EC
:1027A000E7FF66602772BFF35F8F0C34AC42EFD354
:1027B000F8BDFEF7A1FF01002000FFF7D9FF66601A
:1027C000BFF35F8F0834AC42E2D3F1E7101800206A
:1027D0002018002010B50400FEF78EFF0100200035
:1027E000FFF7C6FF01235B426360BFF35F8F10BD3D
:1027F00010B50400FEF780FF01002000FFF7B8FFCE
:1028000001235B42636000232372BFF35F8F10BD1F
:1028100010B504000120FEF77BFF034BC3189B009B
:102820002360BFF35F8F10BD40000034034B9C4614
:10283000614489000160BFF35F8F7047400000343E
:10284000F8B5DE464E4657464546E0B58B46050090
:102850000A991800160011F0C9F80A9B6C001F02B3
:10286000324B64199C46A4006444636881469F42CD
:1028700000D967602B1FDBB29846012B30D9C023EB
:1028800080229B01E31812011A60294BAD005959AF
:102890009A4600291BD17301E026226853401E404E
:1028A000802342465B01E3181E60012A30D9802351
:1028B00080229B01E31812011A6053464A46676062
:1028C0005A51F0BCBB46B246A946A046F8BD58696D
:1028D00011F08CF8013043001B18033BFDD2DAE7FE
:1028E0005B46012BCBD1C02303229B01E3181A6066
:1028F000023AA3681A42FCD07301E0262268AD00B8
:1029000053401E4080230A4A5B019246E3181E6032
:102910005A462168514003220A401A6001225B4650
:102920009A40A3681A42FCD0C1E7C046008000402C
:10293000B4270020F0B546464F46D646C0B51F0026
:10294000344B44009C462418A400644463688846C1
:102950001600FF2B02D880235B006360031FDBB2ED
:102960009A46012B30D9C02380229B01E318120123
:102970001A60294B85005959994600291BD17301CA
:10298000E026226853401E40802352465B01E31834
:102990001E60012A30D9802380229B01E318120196
:1029A0001A6080235B0063604B465F51E0BCBA460F
:1029B000B146A846F0BD586911F018F8013043003F
:1029C0001B18033BFDD2DAE74346012BCBD1C023D2
:1029D00003229B01E3181A60023AA3681A42FCD052
:1029E0007301E0262268850053401E4080230A4A76
:1029F0005B019146E3181E60424621685140032264
:102A00000A401A60012342469340A2681342FCD058
:102A1000C1E7C04600800040B4270020014B800081
:102A2000C0587047B4270020094A83009A1810B58F
:102A300014684022544080322240064CC000A44614
:102A400063441A60044B9C466044416010BDC0461C
:102A500004C0014004D0014000400140074B800009
:102A6000C3181B68C90092000A435A400C23134044
:102A7000034A9446604403607047C04604C0014066
:102A800004D001408000002905D0064B9C4602235B
:102A9000604403607047044B9C460223604403601B
:102AA000F8E7C04604E0014004F00140D0231B06D3
:102AB0001B6830B50500584243412F205B428343D9
:102AC0000E48EC0884460720284080008140200002
:102AD0000B4D3C3063448000A40041511B19002A77
:102AE00005D08022920194466344196030BDC02213
:102AF0009201944663441960F8E7C04630410140B2
:102B000000400140D023F0B5C6461B0698461B681E
:102B10000C4F9B001600FA5804000D0000B510423F
:102B200009D1290014430D203200FC50FFF79EFB11
:102B300080BCB846F0BD10F04DFE43461B689B00BC
:102B4000FA58EEE718EB002010B504000D20FFF74F
:102B500087FCD0231B061B6802499B005A58A243DE
:102B60005A5010BD18EB00208000002905D0064BFC
:102B70009C464023604403607047044B9C464023BE
:102B800060440360F8E7C04604E0014004F00140FF
:102B90000123D0228340120693629361094A830085
:102BA0009A1811684022514080320A400649C000FC
:102BB0008C4663441A60054B9C4605236044436081
:102BC0007047C04604C0014004D0014000400140AD
:102BD000F8B5040021481E0017000D0010F006FF94
:102BE0000100380010F002FF069B36041B031E4351
:102BF0002368002B20DB1A4B1A49E3185A1E934115
:102C00008022920194465B421B0B174A1B036344CC
:102C10001360164A13601F000A689743FBD1144BD8
:102C20002560E2182123A06013602368002BFCDAE2
:102C30000823E6601360F8BD3F2322681340AB42CF
:102C4000D9D1A3681B051B0D8342D4D1EE22E368C2
:102C5000D2021340B342CED1EDE7C046001BB7000D
:102C60000040FDBF08C0004000E0004000F0004010
:102C70000430000010B580241C4BE4051C600028C3
:102C80001AD001231A4C18431A4BDC611A4C4440E9
:102C90001C62596298628021144BC905196017485B
:102CA00017490860E021C9041960002A07D1802271
:102CB000144B12061A6010BD0E4BD861EBE753019E
:102CC0009B1A9B009A18802312015B049A4209D236
:102CD00013000D490B60074B5A608022094BD20547
:102CE0001A60E8E7094B1A00F3E7C04600B0054058
:102CF000D3C007B0008005402D3FF84FFCFF010016
:102D00000820014000A00540143F0020FFFFFF0005
:102D10008023024A9B000B43D3627047008005402A
:102D2000AA23064A1B0113602F230549D360054BD4
:102D300019605368002BFCDA7047C046004002401F
:102D400000B0FA000060024010B501F087FC00F00E
:102D5000A1FB00F069FD00F00DFE06F0FFF801F0A8
:102D60000BFD00F0CDF906F06BF810BD40BA80B253
:102D70007047C04600BA7047F0B5C646040000B5BB
:102D800008008846160018F07BFA05002000002D88
:102D90001AD02378002B1AD0A6196219964216D39E
:102DA0004246177806E063780134002B0FD0601993
:102DB00086420CD39F42F6D12A004146200017F0EC
:102DC000FDFC0028EFD1200080BCB846F0BD0020FB
:102DD000FAE7C046F0B500222026845C8B5C9C425A
:102DE0000AD025003543EDB22F00613F192F08D8D6
:102DF0003343DBB29D4204D10132002CEDD10020DF
:102E000000E00120F0BDC046F0B5C646584D0400B4
:102E10002B68884600B5002B03D02A7A824200D165
:102E20007CE0544E2701EB68002B02D02A7DA242A1
:102E30006AD0AB69002B03D02022AA5CA24259D0F1
:102E40006B6A002B03D02C22AA5CA2422CD03B1927
:102E50001B01F318DB7B002C35D0B27A022A68D034
:102E6000012C35D08D225200B25C022A00D172E0D2
:102E7000022C31D0404AB25C022A00D172E0032C0D
:102E80002AD1032B0DD83D4D9B00585906F0C0FBAD
:102E900000223F193F01F719FB7B9B005A51042385
:102EA000FB7380BCB846F0BD3819000110304146B4
:102EB000AA6A3018984700236B623B191B01F3186C
:102EC000DB7B002CC9D18D225200B25C022A3BD0A0
:102ED000294AB25C022A32D0294AB25C022AD0D1F5
:102EE000284AB25C9A42CCD104223B191B01F31848
:102EF000DA73D6E73819000110304146EA69301814
:102F000098470023AB619BE7381900011030414618
:102F10002A69301898470023EB608AE707013818C0
:102F2000144E000110306A683018984700232B6057
:102F300079E7F27B9A42D7D0012C93D1C8E7124AA5
:102F4000B25C9A42C8D1CFE72022FF32B25C9A42EB
:102F500000D08FE7C8E72022FF32B25C9A4200D04F
:102F600086E7C1E7084AB25C9A4200D087E7BBE730
:102F7000043200203C3200202A020000F4310020FC
:102F80003A0300003F0300002F020000564BF0B54B
:102F90004546DE4657464E4698460301E0B59B46F9
:102FA0001D1843462D015E19F37A070089B0012BE5
:102FB00000D996E04D4A9B00D4580192002C00D1D4
:102FC00085E010354544280018F05AF9A022123047
:102FD00081B29200362000F0EFFE8146002869D0D1
:102FE00005AC0C220021200011F0A0F93089FFF778
:102FF000BDFE01232080A3700C22FF332100484630
:10300000A38001F091F93A4B0C269A464346013DC4
:10301000029703936A786F1C3B0000242E2A07D185
:103020005AE05A780134E4B2591C2E2A49D00B00D8
:10303000002AF6D1DA1B92B290461D002200B21887
:10304000524534DC22003100484601F027FA731C57
:103050009BB2A41942463900484601F0A1F9A4B236
:103060002B78661CB6B2002BD4D1039B0022310012
:1030700048469846029F01F011FA1E4B0234042282
:10308000049304A9A3B2484601F08AF93B000199D0
:103090005B448C461B014344DA7ADB7B16499B0078
:1030A0009200585862443523494606F03FFA484694
:1030B00000F0D8FF09B0F0BCBB46B246A946A04616
:1030C000F0BD5B1B9BB2984622000D00B7E70021C4
:1030D000FFF79AFEB472EDE700233D000022984608
:1030E000ADE70648FDF77CFE3C320020343200207C
:1030F000FEFF000000010001F43100202CB8011097
:103100007047C046012800D97047054B8000002950
:1031100002D00A68C250F7E7024A1268C250F3E7C9
:103120003432002014DB0110F8B5DE4657464E4617
:1031300045460223E0B5474E002534009B46002754
:10314000A37A022B39D030D8002B22D08D235B00FC
:103150009846414B9946414B9A46FEF725F9B37A7A
:1031600080B2022B41D04346F35C022B44D04B4645
:10317000F35C022B49D05346F35C022B4ED05B46E6
:10318000A37201232081E772280023736773FFF77E
:10319000FDFE01351134EDB2FF34042DD0D1F0BC69
:1031A000BB46B246A946A046F8BD032B4FD12368C3
:1031B000002B13D10023A372EBE7237B013BDBB28F
:1031C0002373002BE5D1637B0133DBB26373042BE4
:1031D0002AD023732800FFF7D9FEDAE7013B2360EA
:1031E000002BD6D10023A372D3E733898342B4D016
:1031F0004346F35C022BBAD11733FF33F35A8342B1
:10320000ABD04B46F35C022BB5D18A239B00F35A1B
:103210008342A2D05346F35C022BB0D1CE239B0055
:10322000F35A8342ABD198E7E37A002B08D10C4ADA
:103230005268002A04D001226373E2722273C9E744
:1032400000212800FFF7E0FD0023A372A1E7054855
:10325000FDF7C6FD3C3200202A0200003A030000C0
:103260003432002060B801100123F0B51E000025A3
:103270000640184205D0002953DD057801392D029A
:103280000130032213000340104251D1072957DDBA
:10329000072208390F0091430A0001000400083199
:1032A000891822689A189A429B415B42D218636837
:1032B0000834D3189342924152429B18A142F0D154
:1032C000F9084A1CD2008018C9001A04791A120C95
:1032D0001B0C9B18012910DD02889B188A1E012AED
:1032E00005DD44881B19052901DD81885B1851081B
:1032F0004C1C640049000019511A012904D10278BC
:10330000FE318D431543ADB2ED182B0C2D042D0C61
:103310005B19180C1B041B0CC018002E02D180B2C4
:10332000F0BD0020030600041B0C000E1843F6E756
:10333000012903DD038802390230A7E70023DCE717
:103340001A00C5E7F8B557464E46DE464546E0B595
:1033500091460A9A8A4611681B680A04120C090CE5
:1033600052181904090C52181B0C9B181A0C1B0438
:103370001B0CD3181F0C1B041B0C0400FF18002887
:1033800025D000239B46FF33012698466589606857
:103390002900FFF769FFC019070C0004000C3F1853
:1033A0002E4209D05B46414673403A069B463B0A93
:1033B000120C0B401A4317002468002CE6D15B4620
:1033C000002B04D03A063F04120C3F0E1743504620
:1033D000FFF7CCFC04004846FFF7C8FC2318DB19B4
:1033E0001A0C1B041B0CD318180C1B041B0CC01844
:1033F000C04380B2F0BCBB46B246A946A046F8BD69
:1034000010B582B0049C0094FFF79CFF02B010BD81
:1034100010B5FFF729FFC04380B210BDF8B5CE4606
:103420004746040080B500282FD000239946FF337B
:10343000002701269846658960682900FFF714FF78
:10344000C019070C0004000C3F182E4209D04B464F
:10345000414673403A0699463B0A120C0B401A4308
:1034600017002468002CE6D14B46002B0AD0380602
:103470003B04000C1B0E1843C04380B2C0BCB946CD
:10348000B046F8BDF84380B2F8E70148F6E7C04619
:10349000FFFF00000322094BFA219343084A090168
:1034A000136000221A71074A58181060012219602F
:1034B0000271054A5A50054A1360704767DB0020C5
:1034C0005CDB002060DB0020A00FA00F103F00207D
:1034D000F0B5D6464F464646C0B500285DD08307B6
:1034E00000D079E003003E4A083B12689A4200D9B6
:1034F0006CE03C490C300C68844267D31979002990
:1035000067D0FA2019885E88000181420BD8864274
:1035100009D8981A80B2804690198246B04505D0E5
:103520000088404502D03048FDF75AFC50188442CC
:1035300038D045884545F6D100251D712B4DAC4648
:103540002D689D4202D965462B601D009C4232D9F0
:10355000834212D00779002F0FD184420DD0A842A8
:1035600030D00188FA2019800001814205D04446FC
:10357000501844805E889019824653450DD05046BD
:103580000079002809D1AB4218D053461980FA239C
:103590001B01994201D052185680E0BCBA46B14690
:1035A000A846F0BD00251D71104DAC462D68AB42FC
:1035B000C9D39C42CED80E48FDF712FC6346504654
:1035C0001860E2E761461D000B60CAE70948FDF795
:1035D00007FC0948FDF704FC0848FDF701FCC0465C
:1035E0005CDB002060DB0020E8B80110103F002009
:1035F0001CB90110A4B80110C0B8011080B80110A6
:10360000F8B5CE464746384ACB1C80B513400B2B45
:103610003FD9FA22120193423ED899423CD8334A0C
:103620001668864256D8324A1268824252D904003D
:10363000083C2588A11B2A0089B2083A521A92B286
:103640009A424AD321D07719BC463F79002F25D121
:10365000FA221201954243D062461288254D9146C6
:103660000A0008329B182F689BB2F21867452FD0CA
:10367000002515714D4651801580FA21238012884E
:1036800009018A4201D0B2185380C0BCB946B04685
:10369000F8BD0C239942C2D90020F6E71F00143769
:1036A000BFB2BA42F1D30A0008329B18FA229BB289
:1036B00098461201954213D00E4FF2183B68934280
:1036C00000D93A6000274346177115805180D4E72E
:1036D0002A60CDE70848FDF783FB0848FDF780FB2B
:1036E0000748FDF77DFBC046FCFF00005CDB0020C7
:1036F00060DB0020103F002038B9011050B90110E4
:1037000070B90110F8B5DE4657464E464546E0B55D
:1037100000282ED03D4BC61C1E40B3460B2E2FD981
:10372000FA231B019E4224D8584522D8384BFA2749
:103730009A461B6859469946364B3F0118684B46D6
:103740001B1A9AB21B041B0C7F1ABB4211D2082110
:1037500049428846C41894462579C25A1900130074
:10376000002D04D14646711A891859450BD297424B
:10377000F0D80020F0BCBB46B246A946A046F8BD32
:103780000C239B46D0E75B461433994211D20123A8
:103790005E4623710836204B1968A14520D0A61932
:1037A000B1422CD320000830A407E3D01B48FDF71A
:1037B00017FB5E466346FA2708369B199BB23F010A
:1037C000BB421FD0C1180A8062464A8001220D7197
:1037D000238022710A88BA42DDD082185380DAE74A
:1037E000230004E01B88C3181A79002A04D08B42F6
:1037F000F8D153461960D2E752461360CFE7084824
:10380000FDF7EEFA0748FDF7EBFAC046FCFF0000B3
:10381000103F00205CDB002060DB0020B4B9011009
:1038200084B9011070B9011024230022F0B5474675
:10383000CE4690469946033204249446124E80B5F3
:10384000124B134FB144414632683960614603332D
:103850008B43002C0BD015880021002200E00300D0
:103860000132196058191900A242F8DB3B60043696
:10387000B14504D03268976853685488E3E7C0BC08
:10388000B946B046F0BDC04620D8011050D0002047
:1038900078D8002010B5082812D80C4B8000C458E6
:1038A000FDF78AF9A3681C68002C07D022681A600B
:1038B000A30707D1FDF782F9200010BDFDF77EF9BF
:1038C0000024F9E70248FDF78BFAC04620D8011022
:1038D000F8B9011070B50C0008280ED800290CD0DA
:1038E000084B8000C5588B0708D1FDF765F9AB6818
:1038F0001A6822601C60FDF761F970BD0248FDF78F
:103900006FFAC04620D801101CBA01100C204042AA
:103910007047C04670B5436816000A6804000D0081
:1039200082B09A4201D102B070BD3360300001A96B
:10393000019202F087F8300001A905F095FE01A977
:10394000300000F06BFE392329686160E25C343B93
:103950001340052B05D0E369002BE4D020009847E5
:10396000E1E70029F7D01207F5D52000211D07F067
:10397000B1FFF0E77047C046F0B54746CE4680B588
:1039800004000F009146984683B0002800D180E0E3
:103990000B9B002B7DD0002900D18FE04B46002BE4
:1039A00000D188E04346002B00D181E0474B002541
:1039B00063610022392320006560A560E5602586EB
:1039C0000021E2542830042210F0B0FC0A9B404E43
:1039D00063623C233278E5612562E2540C9B2361EB
:1039E0003B68002B5BD00021002000224B461B6867
:1039F000984200D0A36043461B6899423CD1002AFC
:103A00003DD020000B9B9847002842D1314B9C466B
:103A10001F683C23E55CFF2D18D03C20002F1AD0F6
:103A2000BC424FD03B00FF2207E01B68002B12D0A6
:103A30009C4247D0013A002A17D0195CA942F4D120
:103A40000135EDB2FF2D13D02554E9E7E0540025F0
:103A50003C20002FE4D1FE2D32D00135EDB263467B
:103A60002760200035701C6014E01B48FDF7B8F992
:103A7000002300252354D3E7E360002AC1D12000AE
:103A8000390001AAFFF746FF20000B9B984700284A
:103A9000BCD0002003B0C0BCB946B046F0BD390070
:103AA000200001AAFFF736FF0122A068E1689DE728
:103AB0000A4B98467AE7094B994673E7074F6DE73B
:103AC0000025CCE70648FDF78BF9C0460D390010FC
:103AD000B4ED022098D8002050BA011014DB011078
:103AE0003CBA0110F0B504000D0017001E0083B0B1
:103AF000002922D0002F23D0002E24D02B680022B2
:103B0000002B15D03B68A1688B4200D0A3603368BE
:103B1000E1688B4203D1002A04D003B0F0BDE3601A
:103B2000002AFAD16A4629002000FFF7F3FEF4E7E5
:103B30006268002A09D10122E4E7164D002FDBD18B
:103B4000144F002EDAD1134ED8E7684601A901932D
:103B5000009201F077FF684601A905F085FD01A9F3
:103B6000684600F05BFD39232A686260E15C343B03
:103B70000B40052B07D1002A05D0090703D52000EB
:103B8000211D07F0A7FEE369002BD4D02000984741
:103B90000122B7E714DB011070B5041E16D043688C
:103BA000002B17D139220121A35C194224D11D4BCE
:103BB0001A68A2422ED01C4A1368A34204D126E000
:103BC0001A68A24203D01300002BF9D170BD2268FD
:103BD0001A60FBE7051D0021280001F033FF0021DA
:103BE000280005F041FD0021280000F017FD3922D2
:103BF0000121A35C1942DAD018008843A0541B07A6
:103C00000BD4E369002BD2D020009847CFE723687C
:103C10001360DBE700221A60CDE7200007F0B8FA56
:103C2000EFE7C04694D8002098D80020014B1860D8
:103C30007047C04694D8002070B5041E15D03925B1
:103C4000435DDA0711D401221343DBB24355C26945
:103C5000002A01D09047635D05221A40052A04D14D
:103C60006268002A01D01B0700D470BD2000211D0E
:103C700007F030FEF9E7C04670B5041E03D03925C1
:103C8000435D5A0700D570BD04221343435506F027
:103C9000E3FB0523625D1340052B05D0236A002B4F
:103CA000F1D020009847EEE76368002BF6D01207AA
:103CB000F4D52000211D07F00DFEEFE710B5002818
:103CC0000AD039220421835C194205D08B438354E6
:103CD000036A002B00D0984710BDC046021E0ED0CC
:103CE000084B1868002809D03C2102E00068002831
:103CF00004D0435C0133DBB29342F7D1704700201C
:103D0000FCE7C04698D80020F8B50500002600283A
:103D100026D00F270BE0012B24D0002B2AD128001E
:103D2000FFF7D6FB0136F6B2002C19D02500FCF7C0
:103D300043FFAC7B002C1AD0013CE4B2AC73FCF71F
:103D40003DFF002C0CD12B7B2C683B40022BE2D199
:103D5000290008200136FFF7BDFDF6B2002CE5D1A1
:103D60003000F8BD29000720FFF7B4FDDAE703486B
:103D7000FDF736F80248FDF733F8C04680BA011067
:103D800098BA011010B5FCF717FF0022084B1A7003
:103D9000FCF714FF074B1868002803D107E0C06840
:103DA000002804D0436F002BF9D001F095FE10BD20
:103DB000B6ED022060EC0020F0B5C1234F46464628
:103DC000D6468046C0B50D00170004005B009A423D
:103DD00050D000220C0491460C439F4208D83D006D
:103DE000433BFF3B9D43012D24D03B48FCF7F8FFAC
:103DF000A0239B009F42F8D1030003270333033520
:103E0000BB43BD435B199BB21800103080B2AB427C
:103E10002ED385422CD8FFF775FC061E16D04B46D4
:103E200003604346C3181333BB4343602B4B84608A
:103E3000C3600BE00720FFF72DFD061E06D04B46A2
:103E400084600360436007734373C5813000E0BC46
:103E5000BA46B146A846F0BDFCF7AEFE0122204BA3
:103E60001A70FCF7ABFE002E02D03000FFF74CFFBB
:103E70000026EBE7002398461A4B00269A460023BB
:103E80000327994607E04246ED1AADB21060002DB7
:103E9000DCD0804600240820FFF7FCFC0028DBD0A3
:103EA0005246E31CBB43D31A1A1C9BB2AB4200D947
:103EB0002A1C4946041993B2133442810A4ABC436E
:103EC000016044600581C260002EDCD1ED1AADB204
:103ED0000600002DDDD1B9E7ACBA01108000010069
:103EE000B6ED0220EC0500008200010070B5041E52
:103EF00033D002898A421BD98A1A07E0C91A23895A
:103F000089B29B1823812468002C20D063898B42BE
:103F1000F4D3227B0D040D43120701D18B4208D14B
:103F20002068A560002801D0FFF7EEFE0023236083
:103F300070BD636820001B1BC91889B2FFF760FBC6
:103F4000002807D08442EBD00548FCF749FF05481C
:103F5000FCF746FF0448FCF743FF0448FCF740FF2A
:103F600014BB0110E0BA0110F8BA0110C8BA011070
:103F7000030070B500281ED080225202914218D250
:103F8000002914D002898CB2A21892B2944210D89F
:103F9000057B01207F2D0BD95D68691A1D00103546
:103FA000A94205D3596059891A8164185C8100209F
:103FB00070BD0120FCE70148FCF712FF30BB011087
:103FC00010B5002815D080235B0299420FD200293A
:103FD0000BD043898AB29A4209D89B1A446843811C
:103FE000038961189B1A41600381002010BD0120E4
:103FF000FCE70148FCF7F4FE30BB011010B50029C6
:1040000015DB002829D000290FD003898AB2D318E4
:104010009BB29A421FD84468611A047B7F2C16D841
:1040200041604189038152184281002010BD00285F
:1040300013D0494243898CB29C420CD81B1B426866
:104040004381038952181B1B42600381EDE7040082
:104050001034A142E4D20120E8E70148FCF7C0FE99
:1040600030BB011010B5002802D0FFF74DFE10BD87
:104070000148FCF7B5FEC04630BB0110030000202C
:10408000002B04D01B68013080B2002BFAD170479E
:1040900010B5041E09D0FCF78FFDA37B0133A37379
:1040A000FCF78CFDA37B002B00D010BD0148FCF772
:1040B00097FEC0463CBB011010B5002816D0002961
:1040C00014D00268002A01D111E01A0003890C897A
:1040D0001B19038113681000002BF6D11089538936
:1040E000834206D1088911601B18138110BD02009C
:1040F000F4E70148FCF774FE50BB011010B50C004A
:1041000000281FD000291CD00368002B07D002898B
:1041100021895218028118001B68002BF7D10289EF
:104120004389934211D1228904609B180381FCF7D3
:1041300043FDA37B0133A373FCF740FDA37B002B5E
:1041400006D010BD0029FCD0F1E70348FCF748FE7B
:104150000248FCF745FEC04650BB01103CBB0110B5
:10416000F8B54746CE46060080B5884691461F0002
:10417000002900D18AE00B89934200D286E0002812
:1041800000D183E04B460289FB189A4200DA7DE0B9
:1041900000250EE0BA4242D0424612899A4236D0F9
:1041A000002E03D0728933899A4245D04B46002BAA
:1041B0005FD0434674895B89E41B5B1B9C4200D93A
:1041C0001C004C4500D94C46434670685968220093
:1041D000C019491910F0B0F84B463F192D197289D2
:1041E0001C1BA3B29946BA4253D343465B89AB42E8
:1041F00052D3CFD143461B689846002B28D0BA42F1
:104200000CD042465B89128900259A42C8D14346A8
:104210001B68002BC4D0062040422BE000253668E6
:10422000002E1ED043465A891B899A420AD0002785
:10423000728933899A42B9D13368002BB6D00620EF
:10424000404217E043461B68002BE4D10027EFE70C
:104250004B46002B1AD10025BA42A1D1002736685F
:104260009EE74B46002B11D143465A891B899A423F
:1042700004D00020C0BCB946B046F8BD434618681B
:10428000431E9841052340429843F3E710204042E3
:10429000F0E70348FCF7A4FD0248FCF7A1FDC04687
:1042A00080BB011098BB011010B5002904D0002379
:1042B0000A89FFF755FF10BD10204042FBE7C046BA
:1042C000F0B5C646050088461700002600B5002850
:1042D00026D0002924D0002F05D121E02D681B1BFA
:1042E0009BB2002D1CD06C89002B01D0A342F5D2CB
:1042F000E41A221CA4B2BC4200D93A1C94B2424631
:1043000069683F1B9019C91822003619BFB210F016
:1043100013F8B6B22D68002F02D00023002DE2D191
:10432000300080BCB846F0BDF8B5CE464746050023
:104330008846914680B5002824D0002922D00389E0
:1043400093421CD316000027002A02D112E0002D50
:104350001BD06C89B44200D9340043466868D9192F
:1043600022000FF0E9FF361B2D683F19002EEED119
:10437000B9450DD10020C0BCB946B046F8BD0120FA
:104380004042F8E710204042F5E70348FCF728FDDB
:104390000248FCF725FDC046B4BB0110CCBB0110A0
:1043A000F0B5D6464F46464605008A46C0B50028B9
:1043B00005D146E02D68DB1B9BB2002D41D06F89F3
:1043C000BB42F7D2298998188146814239DB9F4246
:1043D00040D96868C018FB1A9A422EDD9BB21A00B9
:1043E000514698460FF0A8FF4B46DF1BBBB29946DB
:1043F000002B1CD02F68002F29D03B894B4520D3A0
:104400004E46002401E0002F1ED07D89B54200D920
:1044100035004346191978682A0051440FF08CFF83
:10442000761B3F686419002EEDD1A14515D10020FF
:10443000E0BCBA46B146A846F0BD51460FF07CFF3D
:10444000F5E701204042F3E70548FCF7C9FC1020DE
:104450004042EDE70348FCF7C3FC0348FCF7C0FC0F
:10446000B4BB0110E4BB0110CCBB01100B0070B554
:10447000150011891A00FFF79FFC041E06D00023C7
:1044800029002A89FFF76CFE002801D1200070BDA9
:104490000148FCF7A5FCC046FCBB011005E04389C0
:1044A0008B4205D8C91A006889B20028F7D1704735
:1044B00043685A54FBE7C046F0B5DE4645465746CA
:1044C0004E468046E0B5514F83B03968786908F0B0
:1044D0000DFC43465A684E4B557A1C689B46002C8F
:1044E00000D18EE0002843D13C2300269946844623
:1044F00004E0E3682600002B32D01C00237CAB4292
:10450000F7D1217A002906D048467B681B5C01332D
:10451000DBB29942EDD12368002B02D079698B423E
:10452000E7D10121637C194203D061683B6999425C
:10453000DFD163699A46002BDBD00192210042460D
:10454000A069344BD047002850D143465A68019B9C
:10455000934258D102239C46E3682600002BCCD11D
:10456000604603B0F0BCBB46B246A946A046F0BDCB
:104570000020012300269A46019004E0E36826000B
:10458000002B31D01C00237CAB42F7D1217A0029CB
:1045900008D07B689C463C236046C35C0133DBB299
:1045A0009942EBD12368002BE8D15146637C194234
:1045B00003D061683B699942E0D163699946002B59
:1045C000DCD0019221004246A069124BC847002866
:1045D0000CD143465A68019B9A4214D1022301939D
:1045E000E3682600002BCDD10198BAE7002E06D053
:1045F000E368F3605B461B68E3605B461C60012078
:10460000AFE70020ADE70448FCF7EAFBF03E0020EE
:1046100020EB0020003F002010BC011010B5002846
:1046200011D00268002A0ED000290CD00B68002B94
:1046300009D0094B1B68002B05D01C68944203D09D
:10464000DB68002BF9D110BD0A681A60DB68002B0B
:10465000F9D00268F1E7C04620EB00207047C04661
:1046600010B5041E20D0037D042B03D0072B0AD0E5
:10467000032B11D1200003F089FC0523002807D06B
:10468000431C0BD010BD03F081FC0028F8D1092396
:104690002000237503F08AFF0020F3E70822638BD4
:1046A000002013436383EDE70148FCF799FBC04604
:1046B0005CBC011070B50600806F002803D0FFF7C6
:1046C000D1FC0023B367746F002C18D06068256894
:1046D00000280CD0FFF7C6FC21000420FFF7FAF8F1
:1046E000002D0AD02C00606825680028F2D1210036
:1046F0000420FFF7EFF8002DF4D1002373670123A6
:10470000F46E5B423386002C16D060682568002862
:104710000CD0FFF7A7FC21000420FFF7DBF8002DE9
:104720000AD02C00606825680028F2D121000420FE
:10473000FFF7D0F8002DF4D1346F002C16D060684C
:10474000256800280CD0FFF78DFC21000420FFF71E
:10475000C1F8002D0AD02C00606825680028F2D12D
:1047600021000420FFF7B6F8002DF4D100236822C1
:10477000F3663367B35270BD10B5FCF715FE044AFB
:1047800080049446034B800C6044188010BDC046E2
:1047900000C0FFFF4812002010B5037D0100012B6F
:1047A00003D00220FFF796F810BD0148FCF718FB74
:1047B00068BC0110F8B5CE46474680B5002961D0E7
:1047C000002864D0037D002B5ED1002A2BD0314E0F
:1047D0003700103733681B68002B03D113E0DB6808
:1047E000002B10D0DC8A9442F9D11C68002C04D034
:1047F0000D68002D01D0AC42F1D108204042C0BC70
:10480000B946B046F8BD0436B742E3D10B68002B79
:1048100000D00360204BC2821A681860C26004F0A6
:10482000D1FA0020EBE71D4B802698461A881C4BD6
:10483000184F9C4610239946F601B944013292B2B2
:10484000624514D03D002B681B68002B03D111E09A
:10485000DB68002B0ED0DC8A9442F9D1013EB6B25F
:10486000002EEBD143461A8002204042C7E7C02207
:104870001202E7E704354D45E5D143461A80002A88
:10488000C4D1F1E707499BE706204042B7E7102073
:104890004042B4E7B0D8011064EC00204812002078
:1048A000FFFF000014DB011070B5041E33D0037D40
:1048B000002B30D10320FEF7EDFF051E2BD0012287
:1048C00023690361E38A0275C382627D4275A2682F
:1048D000826022680260002B0CD0154A13689C424B
:1048E00004D11FE0DA68944217D01300002BF9D1ED
:1048F0000023E360237D012B17D021000220FEF767
:10490000E9FF0C4BAB610C4B1A681D60EA6004F0C8
:1049100059FA280070BD0025FBE7E268DA60002341
:10492000E360E7E7E3681360E2E70448FCF758FA5E
:1049300064EC0020F55200106CEC002068BC011003
:10494000F8B5031E1BD0048DC16A466A5D8E0F4FF9
:10495000601A80192A1CBD420CD892B2821A07D55F
:10496000891B09D48022520291420BD200208CB2C2
:104970005C85F8BD3A1CF0E700240020F8E7044805
:10498000FCF72EFA0348FCF72BFAC046D0160000BD
:104990007CBC0110A0BC0110F8B500281DD0037D1F
:1049A000012B34D0048D1D4A61188BB293421BD960
:1049B0001300466A458E1A4FC46A0385B218291C33
:1049C000BD420BD889B20919511A11D5A41B1BD4A9
:1049D00080235B029C421DD24485F8BD391C89B2FC
:1049E0000919511AF2D403E09C42E1D81A00E0E719
:1049F00043850C4B121B9A42EFD90222438B13437F
:104A0000438303F0D3FDE8E700234385E5E7064849
:104A1000FCF7E6F90548FCF7E3F9C046A02D0000D5
:104A2000D0160000670B0000BCBC0110A0BC011038
:104A3000C14BF0B54E469946DE46574645464A4676
:104A4000E0B51B6889B001331360BC4A1378059246
:104A500001331370BA4B0793BA4B0693079B1C683C
:104A6000002C00D1C7E000239B4649E0012290467C
:104A70000B2B00D8E8E0062D00D10FE1637A1B076D
:104A800058D5042D00D0EEE14B461F68236AFA2169
:104A9000FF1A9423E35849009A469823E6580433B2
:104AA000E058704350440EF0A1FF874200D8C3E1A4
:104AB00043460133DBB298460123666F9A46002EC7
:104AC00000D1AAE14023E25E53009B185B00BB4289
:104AD00041D9257D032D5AD0092D00D1FDE0434653
:104AE000002B00D099E1237F627F0133DBB2E568C0
:104AF00023779A4200D804E1A3462C00002C7AD0F8
:104B0000257D002D00D1EDE1012D00D1E7E10A2D39
:104B100000D1E1E1059BA27F1B789A4200D107E119
:104B2000A3774223E35C022DA0D1052B00D88BE0B4
:104B300001239846666F002E00D17AE14B461F682C
:104B4000236AFF1A00239A464023E25E53009B1813
:104B50005B00BB42BDD87068356800280CD0FFF7F9
:104B600081FA31000420FEF7B5FE002D0AD02E0098
:104B7000706835680028F2D131000420FEF7AAFEE3
:104B8000002DF4D10023257D6367032DA4D14B466E
:104B9000226A1B689B1A282B00D8A5E09023E658B0
:104BA0002000FFF787FD5A46079B1B68002A00D1AB
:104BB0006DE19C4200D19EE1E368D3605346002B37
:104BC00000D054E1237D2569E768012B00D18FE1F6
:104BD00021000220FEF77EFE0023069C2370002E9B
:104BE00007D00D2128004942B0472378002B00D080
:104BF00034E73C1E84D1544E002431684D460029D0
:104C000004D11AE00C00C968002916D00B7D0A2BCC
:104C100000D06AE12B680A6A9B1AF02BF2D933683C
:104C2000002C00D140E1994200D167E1CF68E760F4
:104C30000220FEF74FFE391EE8D109B0F0BCBB469A
:104C4000B246A946A046F0BDA123E35C9846002BDE
:104C500000D17DE0236F002B00D058E1E36E002BE4
:104C600000D157E1A223E35C0B2B00D90CE14246B3
:104C7000A021364BD25C635C934200D20DE16023ED
:104C8000E15A002919D1200003F08CFF00281AD026
:104C9000257D00239846062D00D0EFE6638BDB06CA
:104CA00000D5A9E0637A1B0700D543E7666F002EA5
:104CB00000D043E700239A4611E7200003F08CF868
:104CC000002800D101E1A0230022E254A132A35C1C
:104CD000062BDDD80133A354DAE74B46226A1B6862
:104CE0009B1AF02B00D959E74346002B00D055E71B
:104CF000237F627F0133DBB2E56823779A4200D9D4
:104D0000FAE60023069A237713708C33E358002BBE
:104D10000AD0210020699847069B1B78002B00D001
:104D20009CE6002800D0E7E6200003F03FFCE3E625
:104D3000A346E468E2E6C04670EC0020BBED02202A
:104D400060EC0020B9ED022074EC0020BFD8011007
:104D50003023E25E7149238E8B4202D801331AB2AE
:104D600022864023E35E934200DD84E6200003F0C8
:104D70001DFA257D002807D0236F002B00D07AE68E
:104D8000E36E002B00D176E6022D16D03C22A35E06
:104D90003E21625EDB109B184222A15C60480A1C27
:104DA0000C2900D987E0D2B2825C934080221202A3
:104DB000934200DB7DE04022A3520023482023865B
:104DC0006033E15A255A628E0B1CA94200D92B1C74
:104DD0009BB250005B0885B2191CAB4200D2011C8B
:104DE0004A23E152023BE252002222332000E252E7
:104DF00003F006FE257D3EE64B461F68236AFF1A38
:104E0000282F00D852E743460133DBB298460023EF
:104E1000666F9A46002E00D054E69023E658002D87
:104E200000D1C0E60A2D00D1BDE6012D00D0B7E6C5
:104E3000B9E600239A464CE6A323E35CFA215E43DD
:104E40003000490050440EF0D1FD874200D82DE7D4
:104E5000200003F039FE002800D06BE6A322A35CFB
:104E60000133A35466E6072D00D10DE662E6238BDD
:104E7000626A216D0293E38A20000193231D00934F
:104E8000230003F061FA9DE601239846F3E59C4276
:104E900037D1E368079A136090E60133DBB26354BD
:104EA000934200D2F5E6EAE699422DD1CF68376009
:104EB000BEE61C4B7FE70C22D2B2825C934080227C
:104EC0001202934200DA76E7F3E7200003F06EFB6C
:104ED000002800D0F7E6DBE61348FBF781FF134814
:104EE000FBF77EFF1248FBF77BFF1248FBF778FFCA
:104EF0001148FBF775FF1148FBF772FF1048FBF7ED
:104F00006FFF1048FBF76CFF0F48FBF769FF0F4876
:104F1000FBF766FF0E48FBF763FFC046FE7F00000D
:104F2000C8D80110FF7F00003CBD011010BD01106A
:104F3000E4BC01102CBE011068BC0110D4BD0110EE
:104F40005CBE011000BE011084BE011068BD0110DE
:104F50009CBD011070B5041E16D06068256800283D
:104F60000CD0FFF77FF821000420FEF7B3FC002DE2
:104F70000AD02C00606825680028F2D121000420A6
:104F8000FEF7A8FC002DF4D170BDC04610B5041E7C
:104F900008D04068002801D0FFF764F82100042001
:104FA000FEF798FC10BDC046002800D04175704740
:104FB00070B5051E0DD00420FEF76CFC041E06D053
:104FC000102229000FF0B8F96068FFF761F820009F
:104FD00070BD0148FBF704FFACBE0110002800D0F3
:104FE0000161704710B5002804D0037D012B02D069
:104FF0008423C15010BD0148FBF7F2FEC8BE01106A
:1050000010B5002804D0037D012B02D08023C150AD
:1050100010BD0148FBF7E4FEF0BE011010B50028FA
:1050200004D0037D012B02D09023C15010BD014854
:10503000FBF7D6FE18BF0110002802D0037D012B1C
:1050400000D070478161FCE710B5002805D0037DD2
:10505000012B03D08C23C150427710BD0148FBF7D0
:10506000BFFEC04640BF011010B5002806D0037D2A
:10507000012B03D90A2B01D0FFF71CFB10BDC04642
:1050800010B50C1E47D0002848D003688B4204D1CD
:105090002FE0DA68A24224D01300002BF9D10023BC
:1050A000E360237D002B0FD1638BDA0729D4E36EF5
:1050B000002B36D1236F002B36D1636F002B36D1F6
:1050C00000232375E38210BD0A2BF0D0012BF7D00B
:1050D0002000FFF7EFFA237D0A2BE8D0012BEFD059
:1050E000E2E7E268DA600023E360237D002BEBD186
:1050F000DAE7CB6803600023E360237D002BE3D174
:10510000D2E7022213436383200003F04FFA237D8A
:10511000012BD5D0CBE70748FBF762FE0648FBF72B
:105120005FFE0648FBF75CFE0548FBF759FE0548A5
:10513000FBF756FE60BF01107CBF01109CBF011041
:10514000B4BF0110D0BF0110F0B54E464546DE4653
:105150005746E0B505000E0087B0002876D0037DE5
:10516000012B00D1B0E00A2B00D19BE0026D9246EA
:10517000426A059290228258934602699146C28AF9
:105180009046002B69D1002A6FD100230026984653
:105190002C6F002C16D06068276800280CD0FEF712
:1051A00061FF21000420FEF795FB002F0AD03C0090
:1051B000606827680028F2D121000420FEF78AFBEE
:1051C000002FF4D1EC6E002C16D060682768002800
:1051D0000CD0FEF747FF21000420FEF77BFB002FD9
:1051E0000AD03C00606827680028F2D12100042022
:1051F000FEF770FB002FF4D16C6F002C16D06068A6
:10520000276800280CD0FEF72DFF21000420FEF7B0
:1052100061FB002F0AD03C00606827680028F2D1AB
:1052200021000420FEF756FB002FF4D1002E2CD1D4
:105230002B7D012B45D029000220FEF74BFB5B465E
:10524000002B03D00D2148464942D84707B0F0BC97
:10525000BB46B246A946A046F0BD29001C48FFF750
:105260000FFF01221B4B1A7092E71B4A13688342FF
:1052700008D1C36813600023EB6086E7DA68AA42AE
:105280001CD01300002BF9D1F5E72B8B514602936C
:10529000434601932B1D009328002B00059A03F031
:1052A00053F8C5E729000D48FFF7EAFE2B7D012BD7
:1052B00007D029000220FEF70DFBC7E7EA68DA6095
:1052C000D9E70748FBF78CFD0648FBF789FDC04688
:1052D00060EC0020B9ED022064EC002074EC0020AA
:1052E00068BC0110E8BF011010B50121FFF72CFFC9
:1052F00010BDC046080010B5002905D00121FFF7F8
:1053000023FF0D20404210BD0148FBF769FDC04658
:105310001CC00110F0B5C646060000B50220FEF71D
:10532000B9FA041E2AD0A422002120000EF0FEFFAC
:105330006423624A6675E252614B4022A362FF23F6
:10534000E372F93BA352E3875E4B443223635E4B27
:105350001B6823625D4B1B78A3775D4BA3645D4B99
:10536000A35094235C4AE2505C4A0433E250092281
:105370000433E250200080BCB846F0BD584B0827EB
:1053800098461D68002D0AD02800438BED681F4207
:10539000F8D0BB434383FFF763F9002DF4D1514BA1
:1053A0001B68002B11D00021474A10681A6A821A24
:1053B000914201D811001C00DB68002BF6D1002CB3
:1053C00003D001212000FFF7BFFE0220FEF762FAA2
:1053D000041EA8D143461B68002B16D03A4A002170
:1053E000106802E0DB68002B09D01A7D092AF9D188
:1053F0001A6A821A9142F5D811001C00F2E7002CBB
:1054000003D000212000FFF79FFE0220FEF742FAA2
:10541000041E00D087E743461B68002B16D02A4A9B
:105420000021106802E0DB68002B09D01A7D082AF1
:10543000F9D11A6A821A9142F5D811001C00F2E7DC
:10544000002C03D000212000FFF77EFE0220FEF793
:1054500021FA041E00D066E773B2002B2BDB002E6E
:1054600022D0320043461B68013AD2B2002B1BD037
:1054700015490F680021884607E0186A3A1A9046D5
:105480001C000A00DB68002B08D0597D8A42F4D842
:10549000F8D1186A3D1AA845F4D8EFE7002C03D0DC
:1054A00001212000FFF750FE0220FEF7F3F9041E51
:1054B00000D038E75EE77F22D4E7C046A02D000089
:1054C000A02DA02DFFFF180270EC0020BBED0220E4
:1054D0000100A02D7D56001000DD6D00F8240100B4
:1054E00060EC002074EC002010B54020FFF712FFA4
:1054F00010BDC04630B5040085B0002800D19DE045
:10550000037D002903D0042B1AD0072B18D0012BC0
:1055100000D168E0022B4AD0002B5DD1E38A002B3A
:105520004FD04B4A1368A34205D184E0DA68A24207
:1055300000D17DE01300002BF8D10023E36040E0B0
:10554000A36F002B44D0638BDB0600D479E0238B60
:10555000626A216D0293E38A20000193231D009368
:10556000230002F0F1FE237D012B04D90A2B02D087
:105570002000FFF79FF8374A1368A34214D1E3686D
:10558000136000230122E360334B1A70334B1B6816
:10559000A34225D0237D012B13D13148FBF720FCFA
:1055A000DA68A24241D01300002BF9D1E9E72100CB
:1055B0002848FFF765FD0122274B1A70237D012B38
:1055C000EBD021000220FEF785F9002005B030BDA8
:1055D000244B228D9A42B6D12000FFF741F8F5E71F
:1055E00002F07EF8F1E7204900200D000C354B68F1
:1055F0001B68002B05D0DA6F944211D0DB68002BBA
:10560000F9D104318D42F2D121001848FFF738FD5D
:10561000237D012B18D021000320FEF75BF9D4E78E
:10562000D867DB68002BE6D1EBE7E268DA60A8E731
:10563000E268DA6081E7E36813607EE70C48FBF715
:10564000CFFB0C48FBF7CCFB0B48FBF7C9FBC04674
:1056500064EC002060EC0020B9ED022068EC002032
:1056600068BC0110A02D0000B0D801106CEC002027
:105670003CC001105CC0011078C00110F0B5C646F6
:105680000800140000B500294AD0002A2CD0138944
:105690000A7D012A47D0098D264A5B189BB29342A6
:1056A0001ED913009046476A468E234AC56A038571
:1056B000B844311C964200D9111C424689B249199E
:1056C000511A21D5ED1B1CD480235B029D422DD2A3
:1056D00045852000FEF7C6FC002080BCB846F0BD22
:1056E0009942DED81A00DDE7002BF5D10B7D012BA6
:1056F00003D010224B8B13434B830121FFF7FAFE9B
:10570000EBE700234385E4E743850C4B521B9A42A9
:10571000DFD90222438B1343438302F047FFD8E7CC
:1057200010204042D9E70648FBF75AFB0548FBF733
:1057300057FBC046A02D0000D0160000670B0000EC
:10574000BCBC0110A0BC0110F8B5041E32D000236F
:10575000866F777B83678433C558002D0CD0002378
:10576000320021000069A84700280BD00D301ED060
:105770000520A6674042F8BD3189FFF70DF93000DA
:10578000FEF770FCBF0610D5238D0C4A934201D062
:10579000013323858423E558002D06D00023002201
:1057A00021002069A8470D3001D00020E3E70D203B
:1057B0004042E0E710204042DDE7C046A02D000057
:1057C000F0B54F464646D646C0B5204D204F2B7803
:1057D00001332B701F4B9946012398464B461C689A
:1057E000002C1BD008262B78A27F9A421BD0424661
:1057F000A377638B1A421ED11E4216D1E3689A46E4
:10580000A36F002B07D0002320003B70FFF79CFF05
:105810003B78002BE2D15446002CE4D1E0BCBA46E0
:10582000B146A846F0BDE468F6E7B34320006383C1
:10583000FEF716FFE2E7022213436383200002F023
:10584000B5FE0322638B93436383D5E7BBED022050
:10585000B9ED022060EC002010B5FFF7B1FF054A5A
:1058600013780133DBB21370DB0700D410BDFFF7F0
:10587000DFF8FBE7BAED022030B5040085B0002860
:1058800000D198E0037D012B00D16FE01021428B05
:105890000A434283042B36D1A36F002B4BD0238BBA
:1058A000626A216D0293E38A20000193231D009315
:1058B000230002F049FD237D012B04D90A2B02D0DD
:1058C0002000FEF7F7FE3F4A13689C4218D1E368B8
:1058D000136000230122E3603B4B1A703B4B1B68B3
:1058E0009C4230D0237D012B3AD021000220FDF7CD
:1058F000F1FF002005B030BDDA68944233D01300C8
:10590000002BF9D1E5E7072BC6D0022B1ED016D805
:10591000C38A002BE9D02E4A1368984208D1C36885
:1059200013600023E360E0E7DA68944240D013009C
:10593000002BF9D1F5E7274B228D9A42AFD12000F9
:10594000FEF78EFED6E701F0CBFED2E721001D4820
:10595000FFF796FB01221C4B1A70237D012BC4D14B
:105960001D48FBF73DFAE268DA60B2E71B49002008
:105970000D000C354B681B68002B05D0DA6F944284
:1059800011D0DB68002BF9D10431A942F2D12100FA
:105990001348FFF775FB237D012B0FD02100032057
:1059A000FDF798FFA5E7D867DB68002BE6D1EBE7AA
:1059B000E268DA60B5E7102040429BE70948FBF750
:1059C0000FFAC04660EC0020B9ED022068EC002020
:1059D00064EC0020A02D000068BC0110B0D80110BC
:1059E0006CEC002078C0011010B5002806D0054BE3
:1059F000054A186812688018186010BD0348FBF744
:105A0000EFF9C0464412002070EC002094C0011051
:105A100010B5002A10D000290DD00A8E002A0AD015
:105A2000131C282A00D22823283B1A1C9BB283422D
:105A300000D9021C90B210BD0148FBF7D1F9C04655
:105A4000B0C0011070B505000E00002802D0036838
:105A5000002B00D170BD1D4A1068002804D10CE055
:105A6000002C0AD020002B680268C4689342F7D14A
:105A70000121FFF769FB002CF4D1154B1C68002CA9
:105A80000AD022682B682000E4689A42F7D10121ED
:105A9000FFF75AFB002CF4D1002EDBD03368002B2B
:105AA000D8D00C4B1A68002AD4D02B6811689942C0
:105AB00005D0D268002ACDD011689942F9D1336857
:105AC0001360D268002AF0D1C4E7C04660EC002021
:105AD00064EC00206CEC002070B5446F0600002CD4
